:100000000C9462000C948A000C948A000C948A0070
:100010000C948A000C948A000C948A000C948A0038
:100020000C948A000C948A000C948A000C948A0028
:100030000C948A000C948A000C948A000C948A0018
:100040000C94F9000C948A000C9412020C948A000F
:100050000C948A000C948A000C948A000C948A00F8
:100060000C948A000C948A000000000024002700F1
:100070002A0000000000250028002B0000000000DE
:1000800023002600290004040404040404040202DA
:100090000202020203030303030301020408102007
:1000A0004080010204081020010204081020000012
:1000B0000007000201000003040600000000000029
:1000C0000000970311241FBECFEFD8E0DEBFCDBFE5
:1000D00011E0A0E0B1E0EAE7F9E002C005900D927E
:1000E000A432B107D9F711E0A4E2B1E001C01D923A
:1000F000A63CB107E1F710E0C4ECD0E004C02297C1
:10010000FE010E94B704C23CD107C9F70E94F20069
:100110000C94BB040C94000083EB91E00E94480314
:10012000882309F450C083EB91E00E945C03909314
:100130002501809324018133910519F0C297C1F5FF
:100140000AC08091180161E00E94C50183EB91E033
:1001500060E071E02AC08091180161E00E94C50151
:1001600068EE73E080E090E00E9441018091180108
:1001700060E00E94C50168EE73E080E090E00E94BC
:1001800041018091180161E00E94C50168EE73E0B1
:1001900080E090E00E9441018091180160E00E949F
:1001A000C50183EB91E06AE071E00E9427040895A5
:1001B0008091180160E00E94C50183EB91E063E14A
:1001C00071E00E94270408958091180161E00E9467
:1001D000A50183EB91E040E855E260E070E00E9409
:1001E0004F0208950E946B010E94E4000E948C005F
:1001F000FDCF1F920F920FB60F9211242F933F93B2
:100200008F939F93AF93BF9380912A0190912B017D
:10021000A0912C01B0912D0130912E010196A11DCC
:10022000B11D232F2D5F2D3720F02D570196A11DD5
:10023000B11D20932E0180932A0190932B01A0934E
:100240002C01B0932D018091260190912701A0915E
:100250002801B09129010196A11DB11D80932601AD
:1002600090932701A0932801B0932901BF91AF91EA
:100270009F918F913F912F910F900FBE0F901F90E4
:100280001895EF92FF920F931F937B018C018FB70C
:10029000F89440912A0150912B0160912C017091AA
:1002A0002D018FBF2FB7F89480912A0190912B01D7
:1002B000A0912C01B0912D012FBF841B950BA60B93
:1002C000B70BE816F9060A071B0760F71F910F9195
:1002D000FF90EF900895789484B5826084BD84B5D2
:1002E000816084BD85B5826085BD85B5816085BD31
:1002F000EEE6F0E0808181608083E1E8F0E08081DB
:1003000082608083808181608083E0E8F0E080818A
:1003100081608083E1EBF0E0808184608083E0EBAA
:10032000F0E0808181608083EAE7F0E08081846092
:1003300080838081826080838081816080838081EE
:10034000806880831092C1000895282F30E0C90191
:1003500086569F4FFC0194912A573F4FF901849193
:10036000882391F0E82FF0E0EE0FFF1FE859FF4FD0
:10037000A591B491662329F48C91909589238C934F
:1003800008958C91892B8C930895482F50E0CA01D1
:1003900082559F4FFC012491CA0186569F4FFC0154
:1003A00094914A575F4FFA0134913323D1F12223BC
:1003B00031F1233021F4809180008F7705C0243003
:1003C00031F4809180008F7D8093800018C02130AF
:1003D00019F484B58F7704C0223021F484B58F7D61
:1003E00084BD0DC0263021F48091B0008F7705C008
:1003F000273029F48091B0008F7D8093B000E32FE7
:10040000F0E0EE0FFF1FEE58FF4FA591B491662369
:1004100029F48C91909589238C9308958C91892B44
:100420008C9308951F920F920FB60F9211242F9361
:100430003F934F935F936F937F938F939F93AF936C
:10044000BF93EF93FF934091C600E091AF01F0910D
:10045000B001CF01019660E870E00E9451049C0158
:100460008091B1019091B2012817390739F0E15D0F
:10047000FE4F40833093B0012093AF01FF91EF9185
:10048000BF91AF919F918F917F916F915F914F91AC
:100490003F912F910F900FBE0F901F9018955F9274
:1004A0006F927F928F929F92AF92BF92CF92DF9284
:1004B000EF92FF920F931F93CF93DF93EC013A01DA
:1004C0004B01413482E458078FE0680780E07807E9
:1004D0000CF07FC060E874E88EE190E0A401930125
:1004E0000E9486042150304040405040CA01B9016A
:1004F00022E030E040E050E00E94860459016A01A9
:10050000A6019501209530954095509594E0220FD5
:10051000331F441F551F9A95D1F760E074E284EFB2
:1005200090E00E948604CA01B9012FEF30E040E05C
:1005300050E00E943204A40193010E948604C90184
:1005400081509F4F181619061CF4522E5A9403C05E
:1005500055245394521A60E079E08DE390E0A401B1
:1005600093010E9486042150304040405040CA010F
:10057000B90122E030E040E050E00E94860420957E
:1005800030954095509583E0220F331F441F551F2F
:100590008A95D1F760E074E284EF90E00E948604CF
:1005A000CA01B9012FEF30E040E050E00E94320470
:1005B000A40193010E948604C90181509F4F18161F
:1005C00019061CF4822F815002C081E0821B851520
:1005D00000F5E885F98581E090E00A8802C0880F7F
:1005E000991F0A94E2F7808360E079E08DE390E060
:1005F000A40193010E9486042150304040405040A5
:10060000CA01B90122E030E040E050E00E948604D7
:1006100004C0E885F98510829501EC81FD81308365
:10062000EE81FF812083EA85FB85208141E050E057
:10063000CA010E8402C0880F991F0A94E2F7282B82
:100640002083EA85FB852081CA010F8402C0880FC0
:10065000991F0A94E2F7282B2083EA85FB85808185
:10066000088802C0440F551F0A94E2F7842B808348
:10067000DF91CF911F910F91FF90EF90DF90CF907E
:10068000BF90AF909F908F907F906F905F900895F4
:10069000DC011296ED91FC911397E058FF4F819188
:1006A000919180589F4F20813181821B930B60E88C
:1006B00070E00E9451040895CF93DF93DC011296FD
:1006C000ED91FC911397EF01CE57DF4F488159818F
:1006D000E058FF4F80819181E058F04084179507E2
:1006E00019F42FEF3FEF0CC0E40FF51F2081CA0172
:1006F000019660E870E00E9451049983888330E09D
:10070000C901DF91CF910895FC01A085B1852189B0
:100710008C9190E0022E02C0959587950A94E2F79D
:1007200080FFF6CF0484F585E02D608308958EE187
:1007300091E09093B4018093B3018FE291E09093A4
:10074000B6018093B50185EC90E09093B801809359
:10075000B70184EC90E09093BA018093B90180ECEA
:1007600090E09093BC018093BB0181EC90E090936A
:10077000BE018093BD0186EC90E09093C001809310
:10078000BF0184E08093C10183E08093C20187E0D0
:100790008093C30185E08093C40181E08093C5010B
:1007A00008950F931F93CF93DF938C01EB0109C042
:1007B0002196D801ED91FC910190F081E02DC801C6
:1007C000099568816623A1F7DF91CF911F910F9161
:1007D0000895EF92FF920F931F93CF93DF938C01B5
:1007E0007B01EA010CC0D7016D917D01D801ED912B
:1007F000FC910190F081E02DC80109952197209787
:1008000091F7DF91CF911F910F91FF90EF90089595
:10081000DC01ED91FC910280F381E02D09950895B2
:100820000F931F938C01DC01ED91FC910190F081FD
:10083000E02D6DE00995D801ED91FC910190F081DA
:10084000E02DC8016AE009951F910F9108950F935B
:100850001F938C010E940804C8010E9410041F917C
:100860000F910895629FD001739FF001829FE00D68
:10087000F11D649FE00DF11D929FF00D839FF00D1F
:10088000749FF00D659FF00D9927729FB00DE11DCB
:10089000F91F639FB00DE11DF91FBD01CF011124A8
:1008A000089597FB092E07260AD077FD04D049D07A
:1008B00006D000201AF4709561957F4F0895F6F7E1
:1008C000909581959F4F0895A1E21A2EAA1BBB1BFC
:1008D000FD010DC0AA1FBB1FEE1FFF1FA217B3070C
:1008E000E407F50720F0A21BB30BE40BF50B661F22
:1008F000771F881F991F1A9469F7609570958095E6
:1009000090959B01AC01BD01CF01089597FB092E85
:1009100005260ED057FD04D0D7DF0AD0001C38F4CE
:1009200050954095309521953F4F4F4F5F4F08951B
:10093000F6F790958095709561957F4F8F4F9F4FFB
:100940000895AA1BBB1B51E107C0AA1FBB1FA61716
:10095000B70710F0A61BB70B881F991F5A95A9F768
:1009600080959095BC01CD010895EE0FFF1F059075
:0A097000F491E02D0994F894FFCFF4
:10097A00656E63656E6469646F007061727061644C
:10098A00656F00656E6365000D000000000084035A
:04099A00D103E90399
:00000001FF
