:100000000C9463000C948B000C948B000C948B006C
:100010000C948B000C948B000C948B000C948B0034
:100020000C948B000C94D9040C948B000C948B00D2
:100030000C948B000C948B000C948B000C948B0014
:100040000C9413060C948B000C9404070C948B00F6
:100050000C948B000C948B000C948B000C948B00F4
:100060000C948B000C948B000000000024002700EF
:100070002A0000000000250028002B0000000000DE
:1000800023002600290004040404040404040202DA
:100090000202020203030303030301020408102007
:1000A0004080010204081020010204081020000012
:1000B0000007000201000003040600000000000029
:1000C00000009F054D0811241FBECFEFD8E0DEBF12
:1000D000CDBF11E0A0E0B1E0E2E6F8E102C005909A
:1000E0000D92A034B107D9F712E0A0E4B1E001C04D
:1000F0001D92AD38B107E1F710E0C6ECD0E004C0C6
:100100002297FE010E942B0CC23CD107C9F70E9426
:100110000C060C942F0C0C9400006093400110927C
:100120004201089582E0809341011092DD0108951B
:10013000CF93DF93EB01E885F9858281938188383D
:10014000910508F46DC082819381853E910508F088
:1001500067C06FC084819581809708F46FC08481E7
:100160009581C79708F06AC086819781099708F43E
:1001700065C086819781429708F060C01F821E8209
:100180008FEF9FEFAFEFBFEF8A839B83AC83BD837D
:100190003EC0848195818234910508F441C08481F8
:1001A00095818037910508F03BC0369620E030E01D
:1001B00040E050E063E070E080819181099780F138
:1001C00080819181429760F53FC0828193818797BA
:1001D00008F041C0220F331F441F551F216008C083
:1001E0008D919C910D97E0F4220F331F441F551FF2
:1001F00034966134710519F06E5F7F4FDDCF80E278
:1002000090E09F838E832A833B834C835D8381E0D0
:1002100090E09983888321E030E040E050E004C022
:1002200020E030E040E050E0B901CA01DF91CF9119
:1002300008958091DD01843009F48CCF8091DD0137
:10024000843408F0A6CFECCFDF011296828193812F
:10025000469708F0BACF8D919C911197069700F3BD
:10026000BFCF0F931F93CF93DF938B018091DD015D
:100270008A3108F460C0DB011896ED91FC91199762
:1002800082819381859708F456C08281938180345E
:10029000910508F050C0DF01169640E050E060E0A4
:1002A00070E0C2E0D0E022C0FD01329780819181F0
:1002B000079728F1808191810E9708F547C08D91AD
:1002C0009C911197829708F047C0440F551F661FF5
:1002D000771F416009C08D919C911197439758F504
:1002E000440F551F661F771F229614968091DD01DB
:1002F0009E012F5F3F4F90E028173907ACF2CE01E7
:10030000019795958795F801978386830C971CF440
:100310001782168210C0D80112964D935D936D938B
:100320007C93159782E090E08D939C9321E030E0E0
:1003300040E050E004C020E030E040E050E0B9018F
:10034000CA01DF91CF911F910F9108958D919C91DA
:100350001197439708F0B3CF8D919C9111970A970D
:1003600050F3B9CF4F925F926F927F928F929F928C
:10037000AF92BF92CF92DF92EF92FF920F931F93B3
:10038000CF93DF93FB012A0139015801DA012D9146
:100390003C91828593852817390724F001E0802E4F
:1003A000912CDAC0C901880F991F0084F185E02DD6
:1003B000E80FF91FC080D18020FD06C0CCE9DFEF37
:1003C000B1E08B2E912C04C0C4E6D0E0882499249F
:1003D000BE016A0D7B1D882777FD8095982F0E94AE
:1003E000B70A7B018C0120E030E040E45FE30E942B
:1003F000430B20E030E048E452E40E941C0A0E94D3
:10040000840AC616D706E4F0C801B70120E030E040
:1004100040EA5FE30E94430B20E030E048E452E40E
:100420000E941C0A20E030E040E85FE30E94B80927
:100430000E94840A6C157D051CF021E030E076C036
:10044000B501660F771F6C0F7D1F882777FD80959C
:10045000982F0E94B70A7B018C0120E030E040E435
:100460005FE30E94430B20E030E048E452E40E9446
:100470001C0A0E94840AC616D706E4F0C801B70118
:1004800020E030E040EA5FE30E94430B20E030E0F0
:1004900048E452E40E941C0A20E030E040E85FE3B8
:1004A0000E94B8090E94840A6C157D051CF022E0A8
:1004B00030E03CC0C501880F991F8A0D9B1DC80FF5
:1004C000D91FBE01882777FD8095982F0E94B70A13
:1004D0007B018C0120E030E040E45FE30E94430BAD
:1004E00020E030E048E452E40E941C0A0E94840AA2
:1004F000C616D70674F1C801B70120E030E040EA23
:100500005FE30E94430B20E030E048E452E40E94A5
:100510001C0A20E030E040E85FE30E94B8090E9436
:10052000840A6C157D05ACF023E030E0F301808196
:100530009181019691838083821793076CF01182D9
:100540001082D2018D919C91119701968D939C936D
:1005500003C088248A94982CC401DF91CF911F9105
:100560000F91FF90EF90DF90CF90BF90AF909F9052
:100570008F907F906F905F904F9008952F923F9251
:100580004F925F926F927F928F929F92AF92BF92A3
:10059000CF92DF92EF92FF920F931F93DF93CF934F
:1005A00000D000D000D0CDB7DEB71C015B01809138
:1005B000DD018D3008F47EC081E090E09A8389836C
:1005C0001C821B8223E0822E912C8C0E9D1EC10169
:1005D0002E010894411C511CA201940109E713E06B
:1005E0000E94B201892B09F065C0C101B501A201C9
:1005F00094010E94B201019709F05CC0C101B501EC
:10060000A20194010E94B201892B09F053C0CC24AD
:10061000DD24760166247724C4018D829E832FC059
:10062000C101B501A2012D813E8109E713E00E94BD
:10063000B2014C01C101B501A2012D813E810E9490
:10064000B20121E08216910479F4892B99F5CC0C42
:10065000DD1CEE1CFF1C81E090E0A0E0B0E0C82AA9
:10066000D92AEA2AFB2A08C0892821F5019711F521
:10067000CC0CDD1CEE1CFF1C0894611C711C8091CD
:10068000DD0190E029813A81281739074CF2D50124
:1006900017967C926E921697F501C282D382E482FD
:1006A000F58283E090E09183808321E030E040E0B8
:1006B00050E004C020E030E040E050E0B901CA0161
:1006C00026960FB6F894DEBF0FBECDBFCF91DF9157
:1006D0001F910F91FF90EF90DF90CF90BF90AF9060
:1006E0009F908F907F906F905F904F903F902F9052
:1006F00008952F923F924F925F926F927F928F92C6
:100700009F92AF92BF92CF92DF92EF92FF920F93A0
:100710001F93DF93CF93CDB7DEB728970FB6F8942A
:10072000DEBF0FBECDBF1C014B01DB011A968D91C0
:100730009C911B97181619060CF0A4C081E090E05C
:100740009A8389831896ED91FC9119978281938100
:10075000899708F497C0828193818734910508F0C6
:1007600091C0AFC084819581459708F08BC0B2C01D
:10077000C101B401A30195010CEB11E00E94B2018B
:10078000019709F07FC0CC24DD2476014424552450
:10079000C501AD829E83C3016F82988756C0C10197
:1007A000B4014F8158852D813E810CEB11E00E94F0
:1007B000B2013C01B3E04B16510461F4C101B40134
:1007C0004F8158852D813E810E94B20168167906BD
:1007D00009F058C0C101B4014F8158852D813E8177
:1007E0000CEB11E00E94B2015C01E3E04E165104F3
:1007F00059F4C101B4014F8158852D813E810E9479
:10080000B201A816B906F1F56114710489F4F1E09A
:10081000AF16B104B9F5CC0CDD1CEE1CFF1C81E059
:1008200090E0A0E0B0E0C82AD92AEA2AFB2A0AC050
:1008300091E06916710431F5AB2821F5CC0CDD1C73
:10084000EE1CFF1C0894411C511C29813A81D401E3
:100850001A968D919C911B97281739070CF49FCFFE
:1008600017965C924E921697F401C282D382E4826C
:10087000F58284E090E09183808321E030E040E0E5
:1008800050E004C020E030E040E050E0B901CA018F
:1008900028960FB6F894DEBF0FBECDBFCF91DF9183
:1008A0001F910F91FF90EF90DF90CF90BF90AF908E
:1008B0009F908F907F906F905F904F903F902F9080
:1008C000089582E090E09A838983848195810B97D3
:1008D000C8F248CF83E090E09A8389831C821B8210
:1008E00033E0A32EB12CAC0EBD1EC101B4013E01FC
:1008F0000894611C711CA30195010CEB11E00E948E
:10090000B201892B09F0BECF33CF0F931F93CF9342
:10091000DF938C01EB0185E491E0998788878091D2
:10092000DD018A871B86809141018530B9F5C801B8
:100930000E949800611571058105910591F5C80126
:10094000BE010E943101611571058105910549F5CE
:10095000C801BE010E94BE026115710581059105A5
:1009600001F5C801BE010E94790361157105810579
:100970009105B9F48A859B8506975CF08FEF9FEF10
:10098000998388831F821E821A821B821C821D8289
:1009900008C082E0809341011092DD0120E030E048
:1009A00002C021E030E0C901DF91CF911F910F918A
:1009B00008951F920F920FB60F9211242F933F9319
:1009C0004F935F936F937F938F939F93AF93BF9357
:1009D000EF93FF9381EA8093B200809140010E94DF
:1009E000B506482F80914301909144010196909360
:1009F0004401809343018091DD018C3418F085E03F
:100A000080934101809141018330D1F0843020F402
:100A1000823009F059C006C0843071F1853009F088
:100A200053C04CC0442309F04FC0809143019091C2
:100A300044018436910508F443C01092DD011EC0C4
:100A4000413009F041C08091DD01E82FF0E02091B4
:100A5000430130914401EE0FFF1FE05CFE4F3683EF
:100A600025838F5F8093DD01109244011092430132
:100A700084E08093410128C04423B9F48091DD01D2
:100A8000E82FF0E02091430130914401EE0FFF1F69
:100A9000E05CFE4F368325838F5F8093DD011092EB
:100AA00044011092430183E0E4CF8091430190918F
:100AB00044018536910540F085E0DBCF442321F4E5
:100AC000109244011092430180914201882329F041
:100AD000442311F42D9A01C02D98FF91EF91BF91FD
:100AE000AF919F918F917F916F915F914F913F91C6
:100AF0002F910F900FBE0F901F9018951092B0007D
:100B0000E1EBF0E080818B7F808380818260808355
:100B100080818E7F8083E0E7F0E080818160808348
:100B200081EA8093B200789482E080934101109230
:100B3000DD018091400160E00E949506089560917A
:100B400033017091340180EE91E00E948D00089590
:100B500080EE91E061EE71E00E948504892B09F43A
:100B60004DC08091E3019091E4019093DF01809367
:100B7000DE0120E38B369207C9F020E38C36920722
:100B800044F420E98B369207E9F08B56904A21F520
:100B90001EC020E58B36920721F08B569046E1F47B
:100BA0000CC08AE792E060E071E004C08AE792E05E
:100BB00064E071E00E94DD081DC08AE792E06AE00F
:100BC00071E0F8CF8AE792E063E171E0F3CF8AE762
:100BD00092E069E171E0EECF8AE792E06EE171E0C8
:100BE0000E94DD086091DE017091DF018AE792E0EA
:100BF0000E94A70980EE91E00E94920008958AE782
:100C000092E040E855E260E070E00E94410780EE2B
:100C100091E00E947E0508950E945B060E94FF05F8
:100C20000E94A805FDCF1F920F920FB60F921124BC
:100C30002F933F938F939F93AF93BF938091F10135
:100C40009091F201A091F301B091F4013091F5017E
:100C50000196A11DB11D232F2D5F2D3720F02D579B
:100C60000196A11DB11D2093F5018093F101909390
:100C7000F201A093F301B093F4018091ED01909102
:100C8000EE01A091EF01B091F0010196A11DB11DFF
:100C90008093ED019093EE01A093EF01B093F001EA
:100CA000BF91AF919F918F913F912F910F900FBE68
:100CB0000F901F901895789484B5826084BD84B598
:100CC000816084BD85B5826085BD85B5816085BD47
:100CD000EEE6F0E0808181608083E1E8F0E08081F1
:100CE00082608083808181608083E0E8F0E08081A1
:100CF00081608083E1EBF0E0808184608083E0EBC1
:100D0000F0E0808181608083EAE7F0E080818460A8
:100D10008083808182608083808181608083808104
:100D2000806880831092C1000895282F30E0C901A7
:100D300086569F4FFC0194912A573F4FF9018491A9
:100D4000882391F0E82FF0E0EE0FFF1FE859FF4FE6
:100D5000A591B491662329F48C91909589238C9365
:100D600008958C91892B8C930895682F70E0CB01A6
:100D700082559F4FFC012491CB0186569F4FFC0169
:100D800044916A577F4FFB019491992319F420E015
:100D900030E038C0222331F1233021F480918000EB
:100DA0008F7705C0243031F4809180008F7D80934F
:100DB000800018C0213019F484B58F7704C0223028
:100DC00021F484B58F7D84BD0DC0263021F480913F
:100DD000B0008F7705C0273029F48091B0008F7D57
:100DE0008093B000892F90E0880F991F84589F4FFF
:100DF000FC01A591B4918C9120E030E0842311F0A6
:100E000021E030E0C90108951F920F920FB60F92B2
:100E100011242F933F934F935F936F937F938F93FF
:100E20009F93AF93BF93EF93FF934091C600E091E0
:100E30007602F0917702CF01019660E870E00E949F
:100E4000C50B9C018091780290917902281739078F
:100E500039F0EA50FE4F40833093770220937602B8
:100E6000FF91EF91BF91AF919F918F917F916F9182
:100E70005F914F913F912F910F900FBE0F901F9058
:100E800018955F926F927F928F929F92AF92BF92CE
:100E9000CF92DF92EF92FF920F931F93CF93DF9346
:100EA000EC013A014B01413482E458078FE06807B6
:100EB00080E078070CF07FC060E874E88EE190E095
:100EC000A40193010E94FA0B215030404040504051
:100ED000CA01B90122E030E040E050E00E94FA0B84
:100EE00059016A01A60195012095309540955095CC
:100EF00094E0220F331F441F551F9A95D1F760E0ED
:100F000074E284EF90E00E94FA0BCA01B9012FEF5E
:100F100030E040E050E00E94A60BA40193010E9443
:100F2000FA0BC90181509F4F181619061CF4522E56
:100F30005A9403C055245394521A60E079E08DE32B
:100F400090E0A40193010E94FA0B215030404040F0
:100F50005040CA01B90122E030E040E050E00E9478
:100F6000FA0B209530954095509583E0220F331F62
:100F7000441F551F8A95D1F760E074E284EF90E03A
:100F80000E94FA0BCA01B9012FEF30E040E050E0B7
:100F90000E94A60BA40193010E94FA0BC901815083
:100FA0009F4F181619061CF4822F815002C081E051
:100FB000821B851500F5E885F98581E090E00A88B7
:100FC00002C0880F991F0A94E2F7808360E079E0FD
:100FD0008DE390E0A40193010E94FA0B2150304070
:100FE00040405040CA01B90122E030E040E050E00A
:100FF0000E94FA0B04C0E885F98510829501EC8106
:10100000FD813083EE81FF812083EA85FB8520818D
:1010100041E050E0CA010E8402C0880F991F0A9473
:10102000E2F7282B2083EA85FB852081CA010F8403
:1010300002C0880F991F0A94E2F7282B2083EA85C3
:10104000FB858081088802C0440F551F0A94E2F78F
:10105000842B8083DF91CF911F910F91FF90EF90B0
:10106000DF90CF90BF90AF909F908F907F906F90C8
:101070005F900895FC01A085B18521898C9190E055
:10108000022E02C0959587950A94E2F780FFF6CF6D
:101090000484F585E02D6083089589E391E09093C1
:1010A0007B0280937A0286EF91E090937D02809399
:1010B0007C0285EC90E090937F0280937E0284EC2A
:1010C00090E0909381028093800280EC90E0909376
:1010D00083028093820281EC90E09093850280935A
:1010E000840286EC90E0909387028093860284E0ED
:1010F0008093880283E08093890287E080938A024C
:1011000085E080938B0281E080938C0208950F9399
:101110001F93CF93DF938C01EB0109C02196D80177
:10112000ED91FC910190F081E02DC8010995688155
:101130006623A1F7DF91CF911F910F910895EF9250
:10114000FF920F931F93CF93DF938C017B01EA01F2
:101150000CC0D7016D917D01D801ED91FC910190FA
:10116000F081E02DC80109952197209791F7DF9133
:10117000CF911F910F91FF90EF900895DC01ED91B9
:10118000FC910280F381E02D099508950F931F9340
:101190008C01DC01ED91FC910190F081E02D6DE07E
:1011A0000995D801ED91FC910190F081E02DC801E5
:1011B0006AE009951F910F9108950F931F938C0179
:1011C0000E94BE08C8010E94C6081F910F91089591
:1011D0002F923F924F925F926F927F928F929F9247
:1011E000AF92BF92CF92DF92EF92FF920F931F9335
:1011F000DF93CF93CDB7DEB7A0970FB6F894DEBFDD
:101200000FBECDBF1C016A017B014115510561056F
:10121000710549F4DC01ED91FC910190F081E02D24
:1012200060E3099554C0882499245401422E552422
:101230006624772401E010E00C0F1D1F080D191D16
:10124000C701B601A30192010E94D80BF801608387
:101250000894811C911CA11CB11CC701B601A301FB
:1012600092010E94D80BC901DA016C017D01C11401
:10127000D104E104F104F1F681E0E82EF12CEC0E4A
:10128000FD1EE80CF91C3E010894611C711CD5017F
:10129000C4010197A109B1096C01C818D90814C08B
:1012A000F601EE0DFF1D60816A3010F4605D01C033
:1012B000695CD101ED91FC910190F081E02DC101BB
:1012C00009950894E108F1086E147F0449F7A09687
:1012D0000FB6F894DEBF0FBECDBFCF91DF911F9147
:1012E0000F91FF90EF90DF90CF90BF90AF909F90C5
:1012F0008F907F906F905F904F903F902F900895C8
:10130000EF92FF920F931F93CF93DF93EC017A013B
:101310008B0177FF0FC0E881F9810190F081E02D0A
:101320006DE2099510950095F094E094E11CF11C94
:10133000011D111DCE01B801A7012AE00E94E80895
:10134000DF91CF911F910F91FF90EF9008950F9330
:101350001F938C01AB01662757FD6095762F0E9485
:101360008009C8010E94C6081F910F910895505826
:10137000BB27AA270ED04DC13ED130F043D120F07B
:1013800031F49F3F11F41EF433C10EF4E095E7FBF6
:1013900029C1E92F4FD180F3BA1762077307840779
:1013A000950718F071F49EF567C10EF4E0950B2EC9
:1013B000BA2FA02D0B01B90190010C01CA01A001A7
:1013C0001124FF27591B99F0593F50F4503E68F102
:1013D0001A16F040A22F232F342F4427585FF3CF43
:1013E000469537952795A795F0405395C9F77EF414
:1013F0001F16BA0B620B730B840BBAF09150A1F05D
:10140000FF0FBB1F661F771F881FC2F70EC0BA0FE2
:10141000621F731F841F48F4879577956795B7956A
:10142000F7959E3F08F0B3CF9395880F08F0992762
:10143000EE0F9795879508950CD0EBC0E3D040F060
:10144000DAD030F021F45F3F19F0CCC0511115C152
:10145000CFC0F0D098F39923C9F35523B1F3951B6E
:10146000550BBB27AA2762177307840738F09F5FC5
:101470005F4F220F331F441FAA1FA9F333D00E2E34
:101480003AF0E0E830D091505040E695001CCAF7A1
:1014900029D0FE2F27D0660F771F881FBB1F261766
:1014A00037074807AB07B0E809F0BB0B802DBF0139
:1014B000FF2793585F4F2AF09E3F510568F092C076
:1014C000DCC05F3FECF3983EDCF38695779567953B
:1014D000B795F7959F5FC9F7880F911D96958795EA
:1014E00097F90895E1E0660F771F881FBB1F621709
:1014F00073078407BA0720F0621B730B840BBA0BC7
:10150000EE1F88F7E095089504D06894B111B5C036
:10151000089598D088F09F5790F0B92F9927B75128
:10152000A0F0D1F0660F771F881F991F1AF0BA95A7
:10153000C9F712C0B13081F09FD0B1E008959CC0CE
:10154000672F782F8827B85F39F0B93FCCF386959D
:1015500077956795B395D9F73EF4909580957095FA
:1015600061957F4F8F4F9F4F0895E89409C097FB77
:101570003EF490958095709561957F4F8F4F9F4F6A
:101580009923A9F0F92F96E9BB279395F6958795AE
:1015900077956795B795F111F8CFFAF4BB0F11F471
:1015A00060FF1BC06F5F7F4F8F4F9F4F16C0882318
:1015B00011F096E911C0772321F09EE8872F762F4E
:1015C00005C0662371F096E8862F70E060E02AF08F
:1015D0009A95660F771F881FDAF7880F969587957B
:1015E00097F9089597F99F6780E870E060E00895A3
:1015F0009FEF80EC089500240A941616170618062B
:101600000906089500240A94121613061406050606
:101610000895092E0394000C11F4882352F0BB0F97
:1016200040F4BF2B11F460FF04C06F5F7F4F8F4FFA
:101630009F4F089557FD9058440F551F59F05F3F35
:1016400071F04795880F97FB991F61F09F3F79F0E4
:1016500087950895121613061406551FF2CF469566
:10166000F1DF08C0161617061806991FF1CF8695E8
:101670007105610508940895E894BB2766277727CC
:10168000CB0197F908950BD0C4CFB5DF28F0BADFAE
:1016900018F0952309F0A6CFABCF1124EECFCADF07
:1016A000A0F3959FD1F3950F50E0551F629FF00175
:1016B000729FBB27F00DB11D639FAA27F00DB11DCE
:1016C000AA1F649F6627B00DA11D661F829F222757
:1016D000B00DA11D621F739FB00DA11D621F839FDE
:1016E000A00D611D221F749F3327A00D611D231FB4
:1016F000849F600D211D822F762F6A2F11249F5702
:1017000050408AF0E1F088234AF0EE0FFF1FBB1F24
:10171000661F771F881F91505040A9F79E3F5105C3
:1017200070F060CFAACF5F3FECF3983EDCF3869574
:1017300077956795B795F795E7959F5FC1F7FE2B6E
:10174000880F911D9695879597F90895629FD0010E
:10175000739FF001829FE00DF11D649FE00DF11D6C
:10176000929FF00D839FF00D749FF00D659FF00D1B
:101770009927729FB00DE11DF91F639FB00DE11D08
:10178000F91FBD01CF011124089597FB092E0726EB
:101790000AD077FD04D049D006D000201AF4709505
:1017A00061957F4F0895F6F7909581959F4F089525
:1017B000A1E21A2EAA1BBB1BFD010DC0AA1FBB1F55
:1017C000EE1FFF1FA217B307E407F50720F0A21BC7
:1017D000B30BE40BF50B661F771F881F991F1A9434
:1017E00069F760957095809590959B01AC01BD015E
:1017F000CF01089597FB092E05260ED057FD04D082
:10180000D7DF0AD0001C38F45095409530952195CB
:101810003F4F4F4F5F4F0895F6F790958095709525
:1018200061957F4F8F4F9F4F0895AA1BBB1B51E1BE
:1018300007C0AA1FBB1FA617B70710F0A61BB70B40
:10184000881F991F5A95A9F780959095BC01CD01E5
:101850000895EE0FFF1F0590F491E02D0994F89480
:02186000FFCFB8
:101862006D6173006D656E6F73006164656C616EAE
:101872007465006174726173006D656E75006F70DE
:1018820063696F6E206E6F207265636F6E6F63693E
:101892006461000B00000000003A0887089F0800FE
:00000001FF
