:100000000C9435000C945D000C945D000C945D0024
:100010000C945D000C945D000C945D000C945D00EC
:100020000C945D000C945D000C945D000C945D00DC
:100030000C945D000C945D000C945D000C945D00CC
:100040000C94AA000C945D000C9474010C945D0057
:100050000C945D000C945D000C945D000C945D00AC
:100060000C945D000C945D00BD0211241FBECFEF07
:10007000D8E0DEBFCDBF11E0A0E0B1E0EEE6F9E0F0
:1000800002C005900D92AA32B107D9F711E0AAE299
:10009000B1E001C01D92AE3CB107E1F710E0CAE645
:1000A000D0E004C02297FE010E94B104C836D107F7
:1000B000C9F70E94A3000C94B5040C9400000F93A0
:1000C0001F9380912A010E94560190932D018093E5
:1000D0002C010BEB11E0C80160E071E00E942E03DF
:1000E00020912C0130912D0184EF91E0AC01249FEF
:1000F000C001259F900D349F900D112460E074E0A5
:100100000E944B04AB01662757FD6095762FC8010E
:100110002AE030E00E941704C8016CE171E00E94FF
:100120004D0368EE73E080E090E00E94F2001F91C2
:100130000F9108958BEB91E040E855E260E070E0AC
:100140000E94B10108950E941C010E949A000E9421
:100150005F00FDCF1F920F920FB60F9211242F93C5
:100160003F938F939F93AF93BF9380913201909170
:100170003301A0913401B0913501309136010196DF
:10018000A11DB11D232F2D5F2D3720F02D57019676
:10019000A11DB11D2093360180933201909333014C
:1001A000A0933401B093350180912E0190912F01DD
:1001B000A0913001B09131010196A11DB11D809334
:1001C0002E0190932F01A0933001B0933101BF9184
:1001D000AF919F918F913F912F910F900FBE0F90F4
:1001E0001F901895EF92FF920F931F937B018C0144
:1001F0008FB7F894409132015091330160913401EE
:10020000709135018FBF2FB7F89480913201909192
:100210003301A0913401B09135012FBF841B950BA0
:10022000A60BB70BE816F9060A071B0760F71F9124
:100230000F91FF90EF900895789484B5826084BD0B
:1002400084B5816084BD85B5826085BD85B58160DA
:1002500085BDEEE6F0E0808181608083E1E8F0E03A
:10026000808182608083808181608083E0E8F0E02B
:10027000808181608083E1EBF0E080818460808315
:10028000E0EBF0E0808181608083EAE7F0E080814C
:1002900084608083808182608083808181608083AC
:1002A0008081806880831092C10008958F70909142
:1002B0001F019295990F990F907C982B90937C0039
:1002C00080917A00806480937A0080917A0086FD24
:1002D000FCCF2091780040917900942F80E030E0AD
:1002E000282B392BC90108951F920F920FB60F9238
:1002F00011242F933F934F935F936F937F938F932B
:100300009F93AF93BF93EF93FF934091C600E0910B
:10031000B701F091B801CF01019660E870E00E944A
:100320004B049C018091B9019091BA0128173907BB
:1003300039F0E95CFE4F40833093B8012093B70158
:10034000FF91EF91BF91AF919F918F917F916F91AD
:100350005F914F913F912F910F900FBE0F901F9083
:1003600018955F926F927F928F929F92AF92BF92F9
:10037000CF92DF92EF92FF920F931F93CF93DF9371
:10038000EC013A014B01413482E458078FE06807E1
:1003900080E078070CF07FC060E874E88EE190E0C0
:1003A000A40193010E9480042150304040405040FD
:1003B000CA01B90122E030E040E050E00E94800430
:1003C00059016A01A60195012095309540955095F7
:1003D00094E0220F331F441F551F9A95D1F760E018
:1003E00074E284EF90E00E948004CA01B9012FEF0B
:1003F00030E040E050E00E942C04A40193010E94F0
:100400008004C90181509F4F181619061CF4522E02
:100410005A9403C055245394521A60E079E08DE356
:1004200090E0A40193010E9480042150304040409C
:100430005040CA01B90122E030E040E050E00E94A3
:100440008004209530954095509583E0220F331F0E
:10045000441F551F8A95D1F760E074E284EF90E065
:100460000E948004CA01B9012FEF30E040E050E063
:100470000E942C04A40193010E948004C9018150B0
:100480009F4F181619061CF4822F815002C081E07C
:10049000821B851500F5E885F98581E090E00A88E2
:1004A00002C0880F991F0A94E2F7808360E079E028
:1004B0008DE390E0A40193010E948004215030401C
:1004C00040405040CA01B90122E030E040E050E035
:1004D0000E94800404C0E885F98510829501EC81B2
:1004E000FD813083EE81FF812083EA85FB852081B9
:1004F00041E050E0CA010E8402C0880F991F0A949F
:10050000E2F7282B2083EA85FB852081CA010F842E
:1005100002C0880F991F0A94E2F7282B2083EA85EE
:10052000FB858081088802C0440F551F0A94E2F7BA
:10053000842B8083DF91CF911F910F91FF90EF90DB
:10054000DF90CF90BF90AF909F908F907F906F90F3
:100550005F900895FC01A085B18521898C9190E080
:10056000022E02C0959587950A94E2F780FFF6CF98
:100570000484F585E02D6083089584E291E09093F2
:10058000BC018093BB0187E391E09093BE0180930F
:10059000BD0185EC90E09093C0018093BF0184EC95
:1005A00090E09093C2018093C10180EC90E0909321
:1005B000C4018093C30181EC90E09093C6018093C5
:1005C000C50186EC90E09093C8018093C70184E058
:1005D0008093C90183E08093CA0187E08093CB01B7
:1005E00085E08093CC0181E08093CD0108950F9345
:1005F0001F93CF93DF938C01EB0109C02196D801A3
:10060000ED91FC910190F081E02DC8010995688180
:100610006623A1F7DF91CF911F910F910895EF927B
:10062000FF920F931F93CF93DF938C017B01EA011D
:100630000CC0D7016D917D01D801ED91FC91019025
:10064000F081E02DC80109952197209791F7DF915E
:10065000CF911F910F91FF90EF900895DC01ED91E4
:10066000FC910280F381E02D099508950F931F936B
:100670008C01DC01ED91FC910190F081E02D6DE0A9
:100680000995D801ED91FC910190F081E02DC80110
:100690006AE009951F910F9108950F931F938C01A4
:1006A0000E942E03C8010E9436031F910F910895E6
:1006B0002F923F924F925F926F927F928F929F9272
:1006C000AF92BF92CF92DF92EF92FF920F931F9360
:1006D000DF93CF93CDB7DEB7A0970FB6F894DEBF08
:1006E0000FBECDBF1C016A017B014115510561059B
:1006F000710549F4DC01ED91FC910190F081E02D50
:1007000060E3099554C0882499245401422E55244D
:100710006624772401E010E00C0F1D1F080D191D41
:10072000C701B601A30192010E945E04F801608333
:100730000894811C911CA11CB11CC701B601A30126
:1007400092010E945E04C901DA016C017D01C114AD
:10075000D104E104F104F1F681E0E82EF12CEC0E75
:10076000FD1EE80CF91C3E010894611C711CD501AA
:10077000C4010197A109B1096C01C818D90814C0B6
:10078000F601EE0DFF1D60816A3010F4605D01C05E
:10079000695CD101ED91FC910190F081E02DC101E6
:1007A00009950894E108F1086E147F0449F7A096B2
:1007B0000FB6F894DEBF0FBECDBFCF91DF911F9172
:1007C0000F91FF90EF90DF90CF90BF90AF909F90F0
:1007D0008F907F906F905F904F903F902F900895F3
:1007E000EF92FF920F931F93CF93DF93EC017A0167
:1007F0008B0177FF0FC0E881F9810190F081E02D36
:100800006DE2099510950095F094E094E11CF11CBF
:10081000011D111DCE01B801A7012AE00E94580355
:10082000DF91CF911F910F91FF90EF900895DC0120
:100830002115310541F4ED91FC910190F081E02DFD
:10084000642F099508952A30310519F40E94F003A8
:1008500008950E9458030895629FD001739FF0018C
:10086000829FE00DF11D649FE00DF11D929FF00D40
:10087000839FF00D749FF00D659FF00D9927729F77
:10088000B00DE11DF91F639FB00DE11DF91FBD0102
:10089000CF011124089597FB092E07260AD077FD72
:1008A00004D049D006D000201AF4709561957F4F8E
:1008B0000895F6F7909581959F4F0895A1E21A2E1D
:1008C000AA1BBB1BFD010DC0AA1FBB1FEE1FFF1FF4
:1008D000A217B307E407F50720F0A21BB30BE40B44
:1008E000F50B661F771F881F991F1A9469F760958B
:1008F0007095809590959B01AC01BD01CF01089545
:1009000097FB092E05260ED057FD04D0D7DF0AD05D
:10091000001C38F450954095309521953F4F4F4F2E
:100920005F4F0895F6F790958095709561957F4F8C
:100930008F4F9F4F0895AA1BBB1B51E107C0AA1FF1
:10094000BB1FA617B70710F0A61BB70B881F991F70
:100950005A95A9F780959095BC01CD010895EE0FA9
:0E096000FF1F0590F491E02D0994F894FFCF4D
:10096E0054656D706572617475726120656E206874
:10097E00616269746163696F6E3A20002043000101
:0A098E0000000000AA02F7020F03A8
:00000001FF
